{
  "_format": "hh-sol-artifact-1",
  "contractName": "TaskContract",
  "sourceName": "contracts/TaskContract.sol",
  "abi": [
    {
      "anonymous": false,
      "inputs": [
        {
          "indexed": false,
          "internalType": "address",
          "name": "recipient",
          "type": "address"
        },
        {
          "indexed": false,
          "internalType": "uint256",
          "name": "taskId",
          "type": "uint256"
        }
      ],
      "name": "AddTask",
      "type": "event"
    },
    {
      "anonymous": false,
      "inputs": [
        {
          "indexed": false,
          "internalType": "uint256",
          "name": "taskId",
          "type": "uint256"
        },
        {
          "indexed": false,
          "internalType": "bool",
          "name": "isDeleted",
          "type": "bool"
        }
      ],
      "name": "DeleteTask",
      "type": "event"
    },
    {
      "inputs": [
        {
          "internalType": "string",
          "name": "taskText",
          "type": "string"
        },
        {
          "internalType": "bool",
          "name": "isDeleted",
          "type": "bool"
        }
      ],
      "name": "addTask",
      "outputs": [],
      "stateMutability": "nonpayable",
      "type": "function"
    },
    {
      "inputs": [
        {
          "internalType": "uint256",
          "name": "taskId",
          "type": "uint256"
        },
        {
          "internalType": "bool",
          "name": "isDeleted",
          "type": "bool"
        }
      ],
      "name": "deleteTask",
      "outputs": [],
      "stateMutability": "nonpayable",
      "type": "function"
    },
    {
      "inputs": [],
      "name": "getMyTasks",
      "outputs": [
        {
          "components": [
            {
              "internalType": "uint256",
              "name": "id",
              "type": "uint256"
            },
            {
              "internalType": "string",
              "name": "taskText",
              "type": "string"
            },
            {
              "internalType": "bool",
              "name": "isDeleted",
              "type": "bool"
            }
          ],
          "internalType": "struct TaskContract.Task[]",
          "name": "",
          "type": "tuple[]"
        }
      ],
      "stateMutability": "view",
      "type": "function"
    },
    {
      "inputs": [
        {
          "internalType": "uint256",
          "name": "",
          "type": "uint256"
        }
      ],
      "name": "taskToOwner",
      "outputs": [
        {
          "internalType": "address",
          "name": "",
          "type": "address"
        }
      ],
      "stateMutability": "view",
      "type": "function"
    }
  ],
  "bytecode": "0x608060405234801561001057600080fd5b50610f0f806100206000396000f3fe608060405234801561001057600080fd5b506004361061004c5760003560e01c806320df4581146100515780636641c6c41461006d5780636e13f8181461009d578063aaba2907146100bb575b600080fd5b61006b600480360381019061006691906107b9565b6100d7565b005b6100876004803603810190610082919061084b565b6101fa565b60405161009491906108b9565b60405180910390f35b6100a561022d565b6040516100b29190610a83565b60405180910390f35b6100d560048036038101906100d09190610aa5565b610523565b005b6000808054905090506000604051806060016040528083815260200185815260200184151581525090806001815401808255809150506001900390600052602060002090600302016000909190919091506000820151816000015560208201518160010190816101479190610cf1565b5060408201518160020160006101000a81548160ff0219169083151502179055505050336001600083815260200190815260200160002060006101000a81548173ffffffffffffffffffffffffffffffffffffffff021916908373ffffffffffffffffffffffffffffffffffffffff1602179055507f1f54e1ba1832d428fbd7e7792beaf62b1fc5a382c207ffd614209c1413e94fda33826040516101ed929190610dd2565b60405180910390a1505050565b60016020528060005260406000206000915054906101000a900473ffffffffffffffffffffffffffffffffffffffff1681565b60606000808054905067ffffffffffffffff81111561024f5761024e610656565b5b60405190808252806020026020018201604052801561028857816020015b610275610604565b81526020019060019003908161026d5790505b5090506000805b600080549050811015610469573373ffffffffffffffffffffffffffffffffffffffff166001600083815260200190815260200160002060009054906101000a900473ffffffffffffffffffffffffffffffffffffffff1673ffffffffffffffffffffffffffffffffffffffff161480156103405750600015156000828154811061031d5761031c610dfb565b5b906000526020600020906003020160020160009054906101000a900460ff161515145b15610456576000818154811061035957610358610dfb565b5b90600052602060002090600302016040518060600160405290816000820154815260200160018201805461038c90610b14565b80601f01602080910402602001604051908101604052809291908181526020018280546103b890610b14565b80156104055780601f106103da57610100808354040283529160200191610405565b820191906000526020600020905b8154815290600101906020018083116103e857829003601f168201915b505050505081526020016002820160009054906101000a900460ff16151515158152505083838151811061043c5761043b610dfb565b5b6020026020010181905250818061045290610e59565b9250505b808061046190610e59565b91505061028f565b5060008167ffffffffffffffff81111561048657610485610656565b5b6040519080825280602002602001820160405280156104bf57816020015b6104ac610604565b8152602001906001900390816104a45790505b50905060005b82811015610519578381815181106104e0576104df610dfb565b5b60200260200101518282815181106104fb576104fa610dfb565b5b6020026020010181905250808061051190610e59565b9150506104c5565b5080935050505090565b3373ffffffffffffffffffffffffffffffffffffffff166001600084815260200190815260200160002060009054906101000a900473ffffffffffffffffffffffffffffffffffffffff1673ffffffffffffffffffffffffffffffffffffffff160361060057806000838154811061059e5761059d610dfb565b5b906000526020600020906003020160020160006101000a81548160ff0219169083151502179055507ff88a35c3d2016c409a46570b994a17b408dbc83c14a03f521512d50b85386d0682826040516105f7929190610eb0565b60405180910390a15b5050565b604051806060016040528060008152602001606081526020016000151581525090565b6000604051905090565b600080fd5b600080fd5b600080fd5b600080fd5b6000601f19601f8301169050919050565b7f4e487b7100000000000000000000000000000000000000000000000000000000600052604160045260246000fd5b61068e82610645565b810181811067ffffffffffffffff821117156106ad576106ac610656565b5b80604052505050565b60006106c0610627565b90506106cc8282610685565b919050565b600067ffffffffffffffff8211156106ec576106eb610656565b5b6106f582610645565b9050602081019050919050565b82818337600083830152505050565b600061072461071f846106d1565b6106b6565b9050828152602081018484840111156107405761073f610640565b5b61074b848285610702565b509392505050565b600082601f8301126107685761076761063b565b5b8135610778848260208601610711565b91505092915050565b60008115159050919050565b61079681610781565b81146107a157600080fd5b50565b6000813590506107b38161078d565b92915050565b600080604083850312156107d0576107cf610631565b5b600083013567ffffffffffffffff8111156107ee576107ed610636565b5b6107fa85828601610753565b925050602061080b858286016107a4565b9150509250929050565b6000819050919050565b61082881610815565b811461083357600080fd5b50565b6000813590506108458161081f565b92915050565b60006020828403121561086157610860610631565b5b600061086f84828501610836565b91505092915050565b600073ffffffffffffffffffffffffffffffffffffffff82169050919050565b60006108a382610878565b9050919050565b6108b381610898565b82525050565b60006020820190506108ce60008301846108aa565b92915050565b600081519050919050565b600082825260208201905092915050565b6000819050602082019050919050565b61090981610815565b82525050565b600081519050919050565b600082825260208201905092915050565b60005b8381101561094957808201518184015260208101905061092e565b60008484015250505050565b60006109608261090f565b61096a818561091a565b935061097a81856020860161092b565b61098381610645565b840191505092915050565b61099781610781565b82525050565b60006060830160008301516109b56000860182610900565b50602083015184820360208601526109cd8282610955565b91505060408301516109e2604086018261098e565b508091505092915050565b60006109f9838361099d565b905092915050565b6000602082019050919050565b6000610a19826108d4565b610a2381856108df565b935083602082028501610a35856108f0565b8060005b85811015610a715784840389528151610a5285826109ed565b9450610a5d83610a01565b925060208a01995050600181019050610a39565b50829750879550505050505092915050565b60006020820190508181036000830152610a9d8184610a0e565b905092915050565b60008060408385031215610abc57610abb610631565b5b6000610aca85828601610836565b9250506020610adb858286016107a4565b9150509250929050565b7f4e487b7100000000000000000000000000000000000000000000000000000000600052602260045260246000fd5b60006002820490506001821680610b2c57607f821691505b602082108103610b3f57610b3e610ae5565b5b50919050565b60008190508160005260206000209050919050565b60006020601f8301049050919050565b600082821b905092915050565b600060088302610ba77fffffffffffffffffffffffffffffffffffffffffffffffffffffffffffffffff82610b6a565b610bb18683610b6a565b95508019841693508086168417925050509392505050565b6000819050919050565b6000610bee610be9610be484610815565b610bc9565b610815565b9050919050565b6000819050919050565b610c0883610bd3565b610c1c610c1482610bf5565b848454610b77565b825550505050565b600090565b610c31610c24565b610c3c818484610bff565b505050565b5b81811015610c6057610c55600082610c29565b600181019050610c42565b5050565b601f821115610ca557610c7681610b45565b610c7f84610b5a565b81016020851015610c8e578190505b610ca2610c9a85610b5a565b830182610c41565b50505b505050565b600082821c905092915050565b6000610cc860001984600802610caa565b1980831691505092915050565b6000610ce18383610cb7565b9150826002028217905092915050565b610cfa8261090f565b67ffffffffffffffff811115610d1357610d12610656565b5b610d1d8254610b14565b610d28828285610c64565b600060209050601f831160018114610d5b5760008415610d49578287015190505b610d538582610cd5565b865550610dbb565b601f198416610d6986610b45565b60005b82811015610d9157848901518255600182019150602085019450602081019050610d6c565b86831015610dae5784890151610daa601f891682610cb7565b8355505b6001600288020188555050505b505050505050565b610dcc81610815565b82525050565b6000604082019050610de760008301856108aa565b610df46020830184610dc3565b9392505050565b7f4e487b7100000000000000000000000000000000000000000000000000000000600052603260045260246000fd5b7f4e487b7100000000000000000000000000000000000000000000000000000000600052601160045260246000fd5b6000610e6482610815565b91507fffffffffffffffffffffffffffffffffffffffffffffffffffffffffffffffff8203610e9657610e95610e2a565b5b600182019050919050565b610eaa81610781565b82525050565b6000604082019050610ec56000830185610dc3565b610ed26020830184610ea1565b939250505056fea2646970667358221220ccb7286e71139a8d8ad620e6290489abe67f6cdd76fb06fcc35c76ab88e4fb9664736f6c63430008110033",
  "linkReferences": {},
  "deployedLinkReferences": {}
}